000001Anderson       Jon            000150099NY
000002Brown          Billie         000000000TX
000003Carson         Cameron        001234567CA
